{
  "contractName": "UserCredentials",
  "abi": [
    {
      "inputs": [
        {
          "internalType": "string",
          "name": "_username",
          "type": "string"
        },
        {
          "internalType": "string",
          "name": "_passwordHash",
          "type": "string"
        }
      ],
      "name": "register",
      "outputs": [],
      "stateMutability": "nonpayable",
      "type": "function"
    },
    {
      "inputs": [],
      "name": "getUser",
      "outputs": [
        {
          "internalType": "string",
          "name": "username",
          "type": "string"
        },
        {
          "internalType": "string",
          "name": "passwordHash",
          "type": "string"
        }
      ],
      "stateMutability": "view",
      "type": "function"
    },
    {
      "inputs": [],
      "name": "isRegistered",
      "outputs": [
        {
          "internalType": "bool",
          "name": "",
          "type": "bool"
        }
      ],
      "stateMutability": "view",
      "type": "function"
    },
    {
      "inputs": [],
      "name": "getAllUsers",
      "outputs": [
        {
          "internalType": "string[]",
          "name": "usernames",
          "type": "string[]"
        },
        {
          "internalType": "string[]",
          "name": "passwordHashes",
          "type": "string[]"
        }
      ],
      "stateMutability": "view",
      "type": "function"
    }
  ],
  "bytecode": "0x608060405234801561001057600080fd5b50610989806100206000396000f3fe608060405234801561001057600080fd5b506004361061004c5760003560e01c806322366844146100515780633ffbd47f1461006f578063832880e714610084578063e2842d791461009a575b600080fd5b6100596100b0565b6040516100669190610847565b60405180910390f35b61008261007d36600461071a565b6100d2565b005b61008c6101ab565b604051610066929190610852565b6100a2610337565b604051610066929190610819565b33600090815260208190526040812080546100ca906108db565b151591505090565b33600090815260208190526040902080546100ec906108db565b1590506101145760405162461bcd60e51b815260040161010b906108a4565b60405180910390fd5b604080518082018252838152602080820184905233600090815280825292909220815180519293919261014a9284920190610600565b5060208281015180516101639260018501920190610600565b50506001805480820182556000919091527fb10e2d527612073b26eecdfd717e6a320cf44b4afac2b0732d9fcbe2b7fa0cf60180546001600160a01b03191633179055505050565b6060806000806000336001600160a01b03166001600160a01b031681526020019081526020016000206040518060400160405290816000820180546101ef906108db565b80601f016020809104026020016040519081016040528092919081815260200182805461021b906108db565b80156102685780601f1061023d57610100808354040283529160200191610268565b820191906000526020600020905b81548152906001019060200180831161024b57829003601f168201915b50505050508152602001600182018054610281906108db565b80601f01602080910402602001604051908101604052809291908181526020018280546102ad906108db565b80156102fa5780601f106102cf576101008083540402835291602001916102fa565b820191906000526020600020905b8154815290600101906020018083116102dd57829003601f168201915b505050919092525050815151919250506103265760405162461bcd60e51b815260040161010b90610877565b805160209091015190925090509091565b600154606090819060008167ffffffffffffffff81111561036857634e487b7160e01b600052604160045260246000fd5b60405190808252806020026020018201604052801561039b57816020015b60608152602001906001900390816103865790505b50905060008267ffffffffffffffff8111156103c757634e487b7160e01b600052604160045260246000fd5b6040519080825280602002602001820160405280156103fa57816020015b60608152602001906001900390816103e55790505b50905060005b838110156105f55760006001828154811061042b57634e487b7160e01b600052603260045260246000fd5b60009182526020808320909101546001600160a01b03168083529082905260408083208151808301909252805492945090918290829061046a906108db565b80601f0160208091040260200160405190810160405280929190818152602001828054610496906108db565b80156104e35780601f106104b8576101008083540402835291602001916104e3565b820191906000526020600020905b8154815290600101906020018083116104c657829003601f168201915b505050505081526020016001820180546104fc906108db565b80601f0160208091040260200160405190810160405280929190818152602001828054610528906108db565b80156105755780601f1061054a57610100808354040283529160200191610575565b820191906000526020600020905b81548152906001019060200180831161055857829003601f168201915b505050505081525050905080600001518584815181106105a557634e487b7160e01b600052603260045260246000fd5b602002602001018190525080602001518484815181106105d557634e487b7160e01b600052603260045260246000fd5b6020026020010181905250505080806105ed90610916565b915050610400565b509093509150509091565b82805461060c906108db565b90600052602060002090601f01602090048101928261062e5760008555610674565b82601f1061064757805160ff1916838001178555610674565b82800160010185558215610674579182015b82811115610674578251825591602001919060010190610659565b50610680929150610684565b5090565b5b808211156106805760008155600101610685565b600082601f8301126106a9578081fd5b813567ffffffffffffffff808211156106c4576106c461093d565b604051601f8301601f1916810160200182811182821017156106e8576106e861093d565b6040528281528483016020018610156106ff578384fd5b82602086016020830137918201602001929092529392505050565b6000806040838503121561072c578182fd5b823567ffffffffffffffff80821115610743578384fd5b61074f86838701610699565b93506020850135915080821115610764578283fd5b5061077185828601610699565b9150509250929050565b6000815180845260208085018081965082840281019150828601855b858110156107c15782840389526107af8483516107ce565b98850198935090840190600101610797565b5091979650505050505050565b60008151808452815b818110156107f3576020818501810151868301820152016107d7565b818111156108045782602083870101525b50601f01601f19169290920160200192915050565b60006040825261082c604083018561077b565b828103602084015261083e818561077b565b95945050505050565b901515815260200190565b60006040825261086560408301856107ce565b828103602084015261083e81856107ce565b602080825260139082015272155cd95c881b9bdd081c9959da5cdd195c9959606a1b604082015260600190565b60208082526017908201527f5573657220616c72656164792072656769737465726564000000000000000000604082015260600190565b6002810460018216806108ef57607f821691505b6020821081141561091057634e487b7160e01b600052602260045260246000fd5b50919050565b600060001982141561093657634e487b7160e01b81526011600452602481fd5b5060010190565b634e487b7160e01b600052604160045260246000fdfea26469706673582212208cefc2fe53f9c2dac1c7a9e514a1236b08217ca98baaab2b5f601b616c2ad20a64736f6c63430008000033",
  "immutableReferences": {},
  "source": "// SPDX-License-Identifier: MIT\r\npragma solidity ^0.8.0;\r\n\r\ncontract UserCredentials {\r\n    struct User {\r\n        string username;\r\n        string passwordHash;\r\n    }\r\n\r\n    mapping(address => User) private users;\r\n    address[] private userAddresses;\r\n\r\n    function register(string memory _username, string memory _passwordHash) public {\r\n        // Only allow registration if the user is not already registered\r\n        require(bytes(users[msg.sender].username).length == 0, \"User already registered\");\r\n\r\n        users[msg.sender] = User(_username, _passwordHash);\r\n        userAddresses.push(msg.sender);\r\n    }\r\n\r\n    function getUser() public view returns (string memory username, string memory passwordHash) {\r\n        User memory user = users[msg.sender];\r\n        require(bytes(user.username).length != 0, \"User not registered\");\r\n        return (user.username, user.passwordHash);\r\n    }\r\n\r\n    function isRegistered() public view returns (bool) {\r\n        return bytes(users[msg.sender].username).length != 0;\r\n    }\r\n\r\n    function getAllUsers() public view returns (string[] memory usernames, string[] memory passwordHashes) {\r\n        uint256 userCount = userAddresses.length;\r\n        string[] memory usernamesArray = new string[](userCount);\r\n        string[] memory passwordHashesArray = new string[](userCount);\r\n\r\n        for (uint256 i = 0; i < userCount; i++) {\r\n            address userAddress = userAddresses[i];\r\n            User memory user = users[userAddress];\r\n            usernamesArray[i] = user.username;\r\n            passwordHashesArray[i] = user.passwordHash;\r\n        }\r\n\r\n        return (usernamesArray, passwordHashesArray);\r\n    }\r\n}\r\n",
  "sourcePath": "C:\\Users\\Admin\\Desktop\\BlockChain\\UserSmartContract\\contracts\\UserCredentials.sol",
  "compiler": {
    "name": "solc",
    "version": "0.8.0+commit.c7dfd78e.Emscripten.clang"
  },
  "schemaVersion": "3.4.16",
  "updatedAt": "2024-07-25T06:22:30.879Z",
  "devdoc": {
    "kind": "dev",
    "methods": {},
    "version": 1
  },
  "userdoc": {
    "kind": "user",
    "methods": {},
    "version": 1
  }
}