{
  "contractName": "UserCredentials",
  "abi": [
    {
      "inputs": [
        {
          "internalType": "string",
          "name": "_username",
          "type": "string"
        },
        {
          "internalType": "string",
          "name": "_password",
          "type": "string"
        }
      ],
      "name": "register",
      "outputs": [],
      "stateMutability": "nonpayable",
      "type": "function"
    },
    {
      "inputs": [
        {
          "internalType": "address",
          "name": "_user",
          "type": "address"
        }
      ],
      "name": "getUser",
      "outputs": [
        {
          "internalType": "string",
          "name": "username",
          "type": "string"
        }
      ],
      "stateMutability": "view",
      "type": "function"
    },
    {
      "inputs": [
        {
          "internalType": "address",
          "name": "_user",
          "type": "address"
        },
        {
          "internalType": "string",
          "name": "_password",
          "type": "string"
        }
      ],
      "name": "verifyPassword",
      "outputs": [
        {
          "internalType": "bool",
          "name": "",
          "type": "bool"
        }
      ],
      "stateMutability": "view",
      "type": "function"
    }
  ],
  "bytecode": "0x608060405234801561001057600080fd5b5061086c806100206000396000f3fe608060405234801561001057600080fd5b50600436106100415760003560e01c80633ffbd47f146100465780636f77926b14610062578063ac306d3614610092575b600080fd5b610060600480360381019061005b91906104dd565b6100c2565b005b61007c60048036038101906100779190610460565b6101f9565b6040516100899190610634565b60405180910390f35b6100ac60048036038101906100a79190610489565b6102cc565b6040516100b99190610619565b60405180910390f35b60008060003373ffffffffffffffffffffffffffffffffffffffff1673ffffffffffffffffffffffffffffffffffffffff16815260200190815260200160002060000180546101109061077e565b905014610152576040517f08c379a000000000000000000000000000000000000000000000000000000000815260040161014990610656565b60405180910390fd5b6040518060400160405280838152602001826040516020016101749190610602565b604051602081830303815290604052805190602001208152506000803373ffffffffffffffffffffffffffffffffffffffff1673ffffffffffffffffffffffffffffffffffffffff16815260200190815260200160002060008201518160000190805190602001906101e7929190610340565b50602082015181600101559050505050565b60606000808373ffffffffffffffffffffffffffffffffffffffff1673ffffffffffffffffffffffffffffffffffffffff16815260200190815260200160002060000180546102479061077e565b80601f01602080910402602001604051908101604052809291908181526020018280546102739061077e565b80156102c05780601f10610295576101008083540402835291602001916102c0565b820191906000526020600020905b8154815290600101906020018083116102a357829003601f168201915b50505050509050919050565b6000816040516020016102df9190610602565b604051602081830303815290604052805190602001206000808573ffffffffffffffffffffffffffffffffffffffff1673ffffffffffffffffffffffffffffffffffffffff1681526020019081526020016000206001015414905092915050565b82805461034c9061077e565b90600052602060002090601f01602090048101928261036e57600085556103b5565b82601f1061038757805160ff19168380011785556103b5565b828001600101855582156103b5579182015b828111156103b4578251825591602001919060010190610399565b5b5090506103c291906103c6565b5090565b5b808211156103df5760008160009055506001016103c7565b5090565b60006103f66103f1846106a7565b610676565b90508281526020810184848401111561040e57600080fd5b61041984828561073c565b509392505050565b6000813590506104308161081f565b92915050565b600082601f83011261044757600080fd5b81356104578482602086016103e3565b91505092915050565b60006020828403121561047257600080fd5b600061048084828501610421565b91505092915050565b6000806040838503121561049c57600080fd5b60006104aa85828601610421565b925050602083013567ffffffffffffffff8111156104c757600080fd5b6104d385828601610436565b9150509250929050565b600080604083850312156104f057600080fd5b600083013567ffffffffffffffff81111561050a57600080fd5b61051685828601610436565b925050602083013567ffffffffffffffff81111561053357600080fd5b61053f85828601610436565b9150509250929050565b61055281610710565b82525050565b6000610563826106d7565b61056d81856106e2565b935061057d81856020860161074b565b6105868161080e565b840191505092915050565b600061059c826106d7565b6105a681856106f3565b93506105b681856020860161074b565b80840191505092915050565b60006105cf6013836106e2565b91507f5573657220616c726561647920657869737473000000000000000000000000006000830152602082019050919050565b600061060e8284610591565b915081905092915050565b600060208201905061062e6000830184610549565b92915050565b6000602082019050818103600083015261064e8184610558565b905092915050565b6000602082019050818103600083015261066f816105c2565b9050919050565b6000604051905081810181811067ffffffffffffffff8211171561069d5761069c6107df565b5b8060405250919050565b600067ffffffffffffffff8211156106c2576106c16107df565b5b601f19601f8301169050602081019050919050565b600081519050919050565b600082825260208201905092915050565b600081905092915050565b60006107098261071c565b9050919050565b60008115159050919050565b600073ffffffffffffffffffffffffffffffffffffffff82169050919050565b82818337600083830152505050565b60005b8381101561076957808201518184015260208101905061074e565b83811115610778576000848401525b50505050565b6000600282049050600182168061079657607f821691505b602082108114156107aa576107a96107b0565b5b50919050565b7f4e487b7100000000000000000000000000000000000000000000000000000000600052602260045260246000fd5b7f4e487b7100000000000000000000000000000000000000000000000000000000600052604160045260246000fd5b6000601f19601f8301169050919050565b610828816106fe565b811461083357600080fd5b5056fea26469706673582212203ea4b5e49bfc63e7bde73612063b1f4be7d03fa6852e6c48a2344c4450c6434764736f6c63430008000033",
  "immutableReferences": {},
  "source": "// SPDX-License-Identifier: MIT\r\npragma solidity ^0.8.0;\r\n\r\ncontract UserCredentials {\r\n    struct User {\r\n        string username;\r\n        bytes32 passwordHash;\r\n    }\r\n\r\n    mapping(address => User) private users;\r\n\r\n    function register(string memory _username, string memory _password) public {\r\n        require(bytes(users[msg.sender].username).length == 0, \"User already exists\");\r\n        users[msg.sender] = User(_username, keccak256(abi.encodePacked(_password)));\r\n    }\r\n\r\n    function getUser(address _user) public view returns (string memory username) {\r\n        return users[_user].username;\r\n    }\r\n\r\n    function verifyPassword(address _user, string memory _password) public view returns (bool) {\r\n        return users[_user].passwordHash == keccak256(abi.encodePacked(_password));\r\n    }\r\n}\r\n",
  "sourcePath": "C:\\Users\\Admin\\Desktop\\BlockChain\\UserSmartContract\\contracts\\UserCredentials.sol",
  "compiler": {
    "name": "solc",
    "version": "0.8.0+commit.c7dfd78e.Emscripten.clang"
  },
  "schemaVersion": "3.4.16",
  "updatedAt": "2024-07-25T05:36:06.971Z",
  "devdoc": {
    "kind": "dev",
    "methods": {},
    "version": 1
  },
  "userdoc": {
    "kind": "user",
    "methods": {},
    "version": 1
  }
}