{
  "contractName": "UserCredentials",
  "abi": [
    {
      "anonymous": false,
      "inputs": [
        {
          "indexed": true,
          "internalType": "address",
          "name": "userAddress",
          "type": "address"
        },
        {
          "indexed": false,
          "internalType": "string",
          "name": "username",
          "type": "string"
        },
        {
          "indexed": false,
          "internalType": "string",
          "name": "firstname",
          "type": "string"
        },
        {
          "indexed": false,
          "internalType": "string",
          "name": "lastname",
          "type": "string"
        },
        {
          "indexed": false,
          "internalType": "string",
          "name": "email",
          "type": "string"
        },
        {
          "indexed": false,
          "internalType": "address",
          "name": "referral",
          "type": "address"
        }
      ],
      "name": "UserRegistered",
      "type": "event"
    },
    {
      "inputs": [],
      "name": "isRegistered",
      "outputs": [
        {
          "internalType": "bool",
          "name": "",
          "type": "bool"
        }
      ],
      "stateMutability": "view",
      "type": "function"
    },
    {
      "inputs": [
        {
          "internalType": "string",
          "name": "_username",
          "type": "string"
        },
        {
          "internalType": "string",
          "name": "_passwordHash",
          "type": "string"
        },
        {
          "internalType": "string",
          "name": "_firstname",
          "type": "string"
        },
        {
          "internalType": "string",
          "name": "_lastname",
          "type": "string"
        },
        {
          "internalType": "string",
          "name": "_email",
          "type": "string"
        },
        {
          "internalType": "address",
          "name": "_referral",
          "type": "address"
        }
      ],
      "name": "register",
      "outputs": [],
      "stateMutability": "nonpayable",
      "type": "function"
    },
    {
      "inputs": [],
      "name": "getUser",
      "outputs": [
        {
          "internalType": "string",
          "name": "",
          "type": "string"
        },
        {
          "internalType": "string",
          "name": "",
          "type": "string"
        },
        {
          "internalType": "string",
          "name": "",
          "type": "string"
        },
        {
          "internalType": "string",
          "name": "",
          "type": "string"
        },
        {
          "internalType": "string",
          "name": "",
          "type": "string"
        },
        {
          "internalType": "address",
          "name": "",
          "type": "address"
        }
      ],
      "stateMutability": "view",
      "type": "function"
    },
    {
      "inputs": [],
      "name": "getAllUsers",
      "outputs": [
        {
          "internalType": "string[]",
          "name": "",
          "type": "string[]"
        },
        {
          "internalType": "string[]",
          "name": "",
          "type": "string[]"
        },
        {
          "internalType": "string[]",
          "name": "",
          "type": "string[]"
        },
        {
          "internalType": "string[]",
          "name": "",
          "type": "string[]"
        },
        {
          "internalType": "string[]",
          "name": "",
          "type": "string[]"
        },
        {
          "internalType": "address[]",
          "name": "",
          "type": "address[]"
        }
      ],
      "stateMutability": "view",
      "type": "function"
    }
  ],
  "bytecode": "0x608060405234801561001057600080fd5b5061123b806100206000396000f3fe608060405234801561001057600080fd5b506004361061004c5760003560e01c80631c23044e146100515780632236684414610066578063832880e714610084578063e2842d791461009e575b600080fd5b61006461005f366004610e0d565b6100b8565b005b61006e61025c565b60405161007b9190611039565b60405180910390f35b61008c610281565b60405161007b969594939291906110ac565b6100a66105e5565b60405161007b96959493929190610f89565b6100c061025c565b156100e65760405162461bcd60e51b81526004016100dd90611156565b60405180910390fd5b6040805160c081018252878152602080820188905281830187905260608201869052608082018590526001600160a01b03841660a08301523360009081528082529290922081518051929384936101409284920190610cd7565b5060208281015180516101599260018501920190610cd7565b5060408201518051610175916002840191602090910190610cd7565b5060608201518051610191916003840191602090910190610cd7565b50608082015180516101ad916004840191602090910190610cd7565b5060a09190910151600590910180546001600160a01b039092166001600160a01b03199283161790556001805480820182556000919091527fb10e2d527612073b26eecdfd717e6a320cf44b4afac2b0732d9fcbe2b7fa0cf6018054909116339081179091556040517f6a8d7b976f609c5eb86814a0b6345ef405f86d6b00e1cce81a0687372391d98c9061024b908a908990899089908990611044565b60405180910390a250505050505050565b33600090815260208190526040812080548291906102799061118d565b905011905090565b6060806060806060600061029361025c565b6102af5760405162461bcd60e51b81526004016100dd90611129565b33600090815260208190526040808220815160c081019092528054829082906102d79061118d565b80601f01602080910402602001604051908101604052809291908181526020018280546103039061118d565b80156103505780601f1061032557610100808354040283529160200191610350565b820191906000526020600020905b81548152906001019060200180831161033357829003601f168201915b505050505081526020016001820180546103699061118d565b80601f01602080910402602001604051908101604052809291908181526020018280546103959061118d565b80156103e25780601f106103b7576101008083540402835291602001916103e2565b820191906000526020600020905b8154815290600101906020018083116103c557829003601f168201915b505050505081526020016002820180546103fb9061118d565b80601f01602080910402602001604051908101604052809291908181526020018280546104279061118d565b80156104745780601f1061044957610100808354040283529160200191610474565b820191906000526020600020905b81548152906001019060200180831161045757829003601f168201915b5050505050815260200160038201805461048d9061118d565b80601f01602080910402602001604051908101604052809291908181526020018280546104b99061118d565b80156105065780601f106104db57610100808354040283529160200191610506565b820191906000526020600020905b8154815290600101906020018083116104e957829003601f168201915b5050505050815260200160048201805461051f9061118d565b80601f016020809104026020016040519081016040528092919081815260200182805461054b9061118d565b80156105985780601f1061056d57610100808354040283529160200191610598565b820191906000526020600020905b81548152906001019060200180831161057b57829003601f168201915b5050509183525050600591909101546001600160a01b031660209182015281519082015160408301516060840151608085015160a090950151939c929b5090995097509195509350915050565b6060806060806060806000600180549050905060008167ffffffffffffffff81111561062157634e487b7160e01b600052604160045260246000fd5b60405190808252806020026020018201604052801561065457816020015b606081526020019060019003908161063f5790505b50905060008267ffffffffffffffff81111561068057634e487b7160e01b600052604160045260246000fd5b6040519080825280602002602001820160405280156106b357816020015b606081526020019060019003908161069e5790505b50905060008367ffffffffffffffff8111156106df57634e487b7160e01b600052604160045260246000fd5b60405190808252806020026020018201604052801561071257816020015b60608152602001906001900390816106fd5790505b50905060008467ffffffffffffffff81111561073e57634e487b7160e01b600052604160045260246000fd5b60405190808252806020026020018201604052801561077157816020015b606081526020019060019003908161075c5790505b50905060008567ffffffffffffffff81111561079d57634e487b7160e01b600052604160045260246000fd5b6040519080825280602002602001820160405280156107d057816020015b60608152602001906001900390816107bb5790505b50905060008667ffffffffffffffff8111156107fc57634e487b7160e01b600052604160045260246000fd5b604051908082528060200260200182016040528015610825578160200160208202803683370190505b50905060005b87811015610cc25760006001828154811061085657634e487b7160e01b600052603260045260246000fd5b60009182526020808320909101546001600160a01b0316808352908290526040808320815160c0810190925280549294509091829082906108969061118d565b80601f01602080910402602001604051908101604052809291908181526020018280546108c29061118d565b801561090f5780601f106108e45761010080835404028352916020019161090f565b820191906000526020600020905b8154815290600101906020018083116108f257829003601f168201915b505050505081526020016001820180546109289061118d565b80601f01602080910402602001604051908101604052809291908181526020018280546109549061118d565b80156109a15780601f10610976576101008083540402835291602001916109a1565b820191906000526020600020905b81548152906001019060200180831161098457829003601f168201915b505050505081526020016002820180546109ba9061118d565b80601f01602080910402602001604051908101604052809291908181526020018280546109e69061118d565b8015610a335780601f10610a0857610100808354040283529160200191610a33565b820191906000526020600020905b815481529060010190602001808311610a1657829003601f168201915b50505050508152602001600382018054610a4c9061118d565b80601f0160208091040260200160405190810160405280929190818152602001828054610a789061118d565b8015610ac55780601f10610a9a57610100808354040283529160200191610ac5565b820191906000526020600020905b815481529060010190602001808311610aa857829003601f168201915b50505050508152602001600482018054610ade9061118d565b80601f0160208091040260200160405190810160405280929190818152602001828054610b0a9061118d565b8015610b575780601f10610b2c57610100808354040283529160200191610b57565b820191906000526020600020905b815481529060010190602001808311610b3a57829003601f168201915b5050509183525050600591909101546001600160a01b031660209091015280518a51919250908a9085908110610b9d57634e487b7160e01b600052603260045260246000fd5b60200260200101819052508060200151888481518110610bcd57634e487b7160e01b600052603260045260246000fd5b60200260200101819052508060400151878481518110610bfd57634e487b7160e01b600052603260045260246000fd5b60200260200101819052508060600151868481518110610c2d57634e487b7160e01b600052603260045260246000fd5b60200260200101819052508060800151858481518110610c5d57634e487b7160e01b600052603260045260246000fd5b60200260200101819052508060a00151848481518110610c8d57634e487b7160e01b600052603260045260246000fd5b60200260200101906001600160a01b031690816001600160a01b03168152505050508080610cba906111c8565b91505061082b565b50949c939b5091995097509550909350915050565b828054610ce39061118d565b90600052602060002090601f016020900481019282610d055760008555610d4b565b82601f10610d1e57805160ff1916838001178555610d4b565b82800160010185558215610d4b579182015b82811115610d4b578251825591602001919060010190610d30565b50610d57929150610d5b565b5090565b5b80821115610d575760008155600101610d5c565b80356001600160a01b0381168114610d8757600080fd5b919050565b600082601f830112610d9c578081fd5b813567ffffffffffffffff80821115610db757610db76111ef565b604051601f8301601f191681016020018281118282101715610ddb57610ddb6111ef565b604052828152848301602001861015610df2578384fd5b82602086016020830137918201602001929092529392505050565b60008060008060008060c08789031215610e25578182fd5b863567ffffffffffffffff80821115610e3c578384fd5b610e488a838b01610d8c565b97506020890135915080821115610e5d578384fd5b610e698a838b01610d8c565b96506040890135915080821115610e7e578384fd5b610e8a8a838b01610d8c565b95506060890135915080821115610e9f578384fd5b610eab8a838b01610d8c565b94506080890135915080821115610ec0578384fd5b50610ecd89828a01610d8c565b925050610edc60a08801610d70565b90509295509295509295565b60008282518085526020808601955080818302840101818601855b84811015610f3157601f19868403018952610f1f838351610f3e565b98840198925090830190600101610f03565b5090979650505050505050565b60008151808452815b81811015610f6357602081850181015186830182015201610f47565b81811115610f745782602083870101525b50601f01601f19169290920160200192915050565b600060c08252610f9c60c0830189610ee8565b602083820381850152610faf828a610ee8565b91508382036040850152610fc38289610ee8565b91508382036060850152610fd78288610ee8565b91508382036080850152610feb8287610ee8565b84810360a08601528551808252828701935090820190845b818110156110285784516001600160a01b031683529383019391830191600101611003565b50909b9a5050505050505050505050565b901515815260200190565b600060a0825261105760a0830188610f3e565b82810360208401526110698188610f3e565b9050828103604084015261107d8187610f3e565b905082810360608401526110918186610f3e565b91505060018060a01b03831660808301529695505050505050565b600060c082526110bf60c0830189610f3e565b82810360208401526110d18189610f3e565b905082810360408401526110e58188610f3e565b905082810360608401526110f98187610f3e565b9050828103608084015261110d8186610f3e565b91505060018060a01b03831660a0830152979650505050505050565b602080825260139082015272155cd95c881b9bdd081c9959da5cdd195c9959606a1b604082015260600190565b60208082526017908201527f5573657220616c72656164792072656769737465726564000000000000000000604082015260600190565b6002810460018216806111a157607f821691505b602082108114156111c257634e487b7160e01b600052602260045260246000fd5b50919050565b60006000198214156111e857634e487b7160e01b81526011600452602481fd5b5060010190565b634e487b7160e01b600052604160045260246000fdfea264697066735822122085437039f71bf8cf3aad993d7816b6578319b6b99d9cde4733e54502cf60a87164736f6c63430008000033",
  "immutableReferences": {},
  "source": "// SPDX-License-Identifier: MIT\r\npragma solidity ^0.8.0;\r\n\r\ncontract UserCredentials {\r\n    struct User {\r\n        string username;\r\n        string passwordHash;\r\n        string firstname;\r\n        string lastname;\r\n        string email;\r\n        address referral;\r\n    }\r\n\r\n    mapping(address => User) private users;\r\n    address[] private userAddresses;\r\n\r\n    event UserRegistered(\r\n        address indexed userAddress,\r\n        string username,\r\n        string firstname,\r\n        string lastname,\r\n        string email,\r\n        address referral\r\n    );\r\n\r\n    function isRegistered() public view returns (bool) {\r\n        return bytes(users[msg.sender].username).length > 0;\r\n    }\r\n\r\n    function register(\r\n        string memory _username,\r\n        string memory _passwordHash,\r\n        string memory _firstname,\r\n        string memory _lastname,\r\n        string memory _email,\r\n        address _referral\r\n    ) public {\r\n        require(!isRegistered(), \"User already registered\");\r\n\r\n        User memory newUser = User({\r\n            username: _username,\r\n            passwordHash: _passwordHash,\r\n            firstname: _firstname,\r\n            lastname: _lastname,\r\n            email: _email,\r\n            referral: _referral\r\n        });\r\n\r\n        users[msg.sender] = newUser;\r\n        userAddresses.push(msg.sender);\r\n\r\n        emit UserRegistered(msg.sender, _username, _firstname, _lastname, _email, _referral);\r\n    }\r\n\r\n    function getUser() public view returns (\r\n        string memory,\r\n        string memory,\r\n        string memory,\r\n        string memory,\r\n        string memory,\r\n        address\r\n    ) {\r\n        require(isRegistered(), \"User not registered\");\r\n\r\n        User memory user = users[msg.sender];\r\n        return (\r\n            user.username,\r\n            user.passwordHash,\r\n            user.firstname,\r\n            user.lastname,\r\n            user.email,\r\n            user.referral\r\n        );\r\n    }\r\n\r\n    function getAllUsers() public view returns (\r\n        string[] memory,\r\n        string[] memory,\r\n        string[] memory,\r\n        string[] memory,\r\n        string[] memory,\r\n        address[] memory\r\n    ) {\r\n        uint256 userCount = userAddresses.length;\r\n        \r\n        string[] memory usernames = new string[](userCount);\r\n        string[] memory passwordHashes = new string[](userCount);\r\n        string[] memory firstnames = new string[](userCount);\r\n        string[] memory lastnames = new string[](userCount);\r\n        string[] memory emails = new string[](userCount);\r\n        address[] memory referrals = new address[](userCount);\r\n\r\n        for (uint256 i = 0; i < userCount; i++) {\r\n            address userAddress = userAddresses[i];\r\n            User memory user = users[userAddress];\r\n\r\n            usernames[i] = user.username;\r\n            passwordHashes[i] = user.passwordHash;\r\n            firstnames[i] = user.firstname;\r\n            lastnames[i] = user.lastname;\r\n            emails[i] = user.email;\r\n            referrals[i] = user.referral;\r\n        }\r\n\r\n        return (usernames, passwordHashes, firstnames, lastnames, emails, referrals);\r\n    }\r\n}\r\n",
  "sourcePath": "C:\\Users\\Rajveer\\OneDrive\\Desktop\\New folder\\UserInforSmartContract\\contracts\\UserCredentials.sol",
  "compiler": {
    "name": "solc",
    "version": "0.8.0+commit.c7dfd78e.Emscripten.clang"
  },
  "schemaVersion": "3.4.16",
  "updatedAt": "2024-07-25T12:07:35.259Z",
  "devdoc": {
    "kind": "dev",
    "methods": {},
    "version": 1
  },
  "userdoc": {
    "kind": "user",
    "methods": {},
    "version": 1
  }
}