{
  "contractName": "UserCredentials",
  "abi": [
    {
      "anonymous": false,
      "inputs": [
        {
          "indexed": true,
          "internalType": "address",
          "name": "userAddress",
          "type": "address"
        },
        {
          "indexed": false,
          "internalType": "string",
          "name": "username",
          "type": "string"
        },
        {
          "indexed": false,
          "internalType": "string",
          "name": "firstname",
          "type": "string"
        },
        {
          "indexed": false,
          "internalType": "string",
          "name": "lastname",
          "type": "string"
        },
        {
          "indexed": false,
          "internalType": "string",
          "name": "email",
          "type": "string"
        },
        {
          "indexed": false,
          "internalType": "address",
          "name": "referral",
          "type": "address"
        }
      ],
      "name": "UserRegistered",
      "type": "event"
    },
    {
      "inputs": [
        {
          "internalType": "address",
          "name": "_address",
          "type": "address"
        }
      ],
      "name": "isRegistered",
      "outputs": [
        {
          "internalType": "bool",
          "name": "",
          "type": "bool"
        }
      ],
      "stateMutability": "view",
      "type": "function"
    },
    {
      "inputs": [
        {
          "internalType": "string",
          "name": "_username",
          "type": "string"
        },
        {
          "internalType": "string",
          "name": "_passwordHash",
          "type": "string"
        },
        {
          "internalType": "string",
          "name": "_firstname",
          "type": "string"
        },
        {
          "internalType": "string",
          "name": "_lastname",
          "type": "string"
        },
        {
          "internalType": "string",
          "name": "_email",
          "type": "string"
        },
        {
          "internalType": "address",
          "name": "_referral",
          "type": "address"
        }
      ],
      "name": "register",
      "outputs": [],
      "stateMutability": "nonpayable",
      "type": "function"
    },
    {
      "inputs": [
        {
          "internalType": "address",
          "name": "_userAddress",
          "type": "address"
        }
      ],
      "name": "getUser",
      "outputs": [
        {
          "internalType": "string",
          "name": "",
          "type": "string"
        },
        {
          "internalType": "string",
          "name": "",
          "type": "string"
        },
        {
          "internalType": "string",
          "name": "",
          "type": "string"
        },
        {
          "internalType": "string",
          "name": "",
          "type": "string"
        },
        {
          "internalType": "string",
          "name": "",
          "type": "string"
        },
        {
          "internalType": "address",
          "name": "",
          "type": "address"
        }
      ],
      "stateMutability": "view",
      "type": "function"
    },
    {
      "inputs": [],
      "name": "getAllUsers",
      "outputs": [
        {
          "internalType": "address[]",
          "name": "",
          "type": "address[]"
        },
        {
          "internalType": "string[]",
          "name": "",
          "type": "string[]"
        },
        {
          "internalType": "string[]",
          "name": "",
          "type": "string[]"
        },
        {
          "internalType": "string[]",
          "name": "",
          "type": "string[]"
        },
        {
          "internalType": "string[]",
          "name": "",
          "type": "string[]"
        },
        {
          "internalType": "string[]",
          "name": "",
          "type": "string[]"
        },
        {
          "internalType": "address[]",
          "name": "",
          "type": "address[]"
        }
      ],
      "stateMutability": "view",
      "type": "function"
    }
  ],
  "bytecode": "0x608060405234801561001057600080fd5b5061134b806100206000396000f3fe608060405234801561001057600080fd5b506004361061004c5760003560e01c80631c23044e146100515780636f77926b14610066578063c3c5a54714610094578063e2842d79146100b4575b600080fd5b61006461005f366004610ef6565b6100cf565b005b610079610074366004610ed5565b610274565b60405161008b969594939291906111bc565b60405180910390f35b6100a76100a2366004610ed5565b6105e3565b60405161008b9190611149565b6100bc610614565b60405161008b97969594939291906110b2565b6100d8336105e3565b156100fe5760405162461bcd60e51b81526004016100f590611266565b60405180910390fd5b6040805160c081018252878152602080820188905281830187905260608201869052608082018590526001600160a01b03841660a08301523360009081528082529290922081518051929384936101589284920190610da4565b5060208281015180516101719260018501920190610da4565b506040820151805161018d916002840191602090910190610da4565b50606082015180516101a9916003840191602090910190610da4565b50608082015180516101c5916004840191602090910190610da4565b5060a09190910151600590910180546001600160a01b039092166001600160a01b03199283161790556001805480820182556000919091527fb10e2d527612073b26eecdfd717e6a320cf44b4afac2b0732d9fcbe2b7fa0cf6018054909116339081179091556040517f6a8d7b976f609c5eb86814a0b6345ef405f86d6b00e1cce81a0687372391d98c90610263908a908990899089908990611154565b60405180910390a250505050505050565b60608060608060606000610287876105e3565b6102a35760405162461bcd60e51b81526004016100f590611239565b6001600160a01b038716600090815260208190526040808220815160c081019092528054829082906102d49061129d565b80601f01602080910402602001604051908101604052809291908181526020018280546103009061129d565b801561034d5780601f106103225761010080835404028352916020019161034d565b820191906000526020600020905b81548152906001019060200180831161033057829003601f168201915b505050505081526020016001820180546103669061129d565b80601f01602080910402602001604051908101604052809291908181526020018280546103929061129d565b80156103df5780601f106103b4576101008083540402835291602001916103df565b820191906000526020600020905b8154815290600101906020018083116103c257829003601f168201915b505050505081526020016002820180546103f89061129d565b80601f01602080910402602001604051908101604052809291908181526020018280546104249061129d565b80156104715780601f1061044657610100808354040283529160200191610471565b820191906000526020600020905b81548152906001019060200180831161045457829003601f168201915b5050505050815260200160038201805461048a9061129d565b80601f01602080910402602001604051908101604052809291908181526020018280546104b69061129d565b80156105035780601f106104d857610100808354040283529160200191610503565b820191906000526020600020905b8154815290600101906020018083116104e657829003601f168201915b5050505050815260200160048201805461051c9061129d565b80601f01602080910402602001604051908101604052809291908181526020018280546105489061129d565b80156105955780601f1061056a57610100808354040283529160200191610595565b820191906000526020600020905b81548152906001019060200180831161057857829003601f168201915b5050509183525050600591909101546001600160a01b031660209182015281519082015160408301516060840151608085015160a090950151939d929c50909a509850919650945092505050565b6001600160a01b038116600090815260208190526040812080548291906106099061129d565b90501190505b919050565b60608060608060608060606000600180549050905060008167ffffffffffffffff81111561065257634e487b7160e01b600052604160045260246000fd5b60405190808252806020026020018201604052801561067b578160200160208202803683370190505b50905060008267ffffffffffffffff8111156106a757634e487b7160e01b600052604160045260246000fd5b6040519080825280602002602001820160405280156106da57816020015b60608152602001906001900390816106c55790505b50905060008367ffffffffffffffff81111561070657634e487b7160e01b600052604160045260246000fd5b60405190808252806020026020018201604052801561073957816020015b60608152602001906001900390816107245790505b50905060008467ffffffffffffffff81111561076557634e487b7160e01b600052604160045260246000fd5b60405190808252806020026020018201604052801561079857816020015b60608152602001906001900390816107835790505b50905060008567ffffffffffffffff8111156107c457634e487b7160e01b600052604160045260246000fd5b6040519080825280602002602001820160405280156107f757816020015b60608152602001906001900390816107e25790505b50905060008667ffffffffffffffff81111561082357634e487b7160e01b600052604160045260246000fd5b60405190808252806020026020018201604052801561085657816020015b60608152602001906001900390816108415790505b50905060008767ffffffffffffffff81111561088257634e487b7160e01b600052604160045260246000fd5b6040519080825280602002602001820160405280156108ab578160200160208202803683370190505b50905060005b88811015610d8c576000600182815481106108dc57634e487b7160e01b600052603260045260246000fd5b60009182526020808320909101546001600160a01b0316808352908290526040808320815160c08101909252805492945090918290829061091c9061129d565b80601f01602080910402602001604051908101604052809291908181526020018280546109489061129d565b80156109955780601f1061096a57610100808354040283529160200191610995565b820191906000526020600020905b81548152906001019060200180831161097857829003601f168201915b505050505081526020016001820180546109ae9061129d565b80601f01602080910402602001604051908101604052809291908181526020018280546109da9061129d565b8015610a275780601f106109fc57610100808354040283529160200191610a27565b820191906000526020600020905b815481529060010190602001808311610a0a57829003601f168201915b50505050508152602001600282018054610a409061129d565b80601f0160208091040260200160405190810160405280929190818152602001828054610a6c9061129d565b8015610ab95780601f10610a8e57610100808354040283529160200191610ab9565b820191906000526020600020905b815481529060010190602001808311610a9c57829003601f168201915b50505050508152602001600382018054610ad29061129d565b80601f0160208091040260200160405190810160405280929190818152602001828054610afe9061129d565b8015610b4b5780601f10610b2057610100808354040283529160200191610b4b565b820191906000526020600020905b815481529060010190602001808311610b2e57829003601f168201915b50505050508152602001600482018054610b649061129d565b80601f0160208091040260200160405190810160405280929190818152602001828054610b909061129d565b8015610bdd5780601f10610bb257610100808354040283529160200191610bdd565b820191906000526020600020905b815481529060010190602001808311610bc057829003601f168201915b5050509183525050600591909101546001600160a01b03166020909101528a5190915082908b9085908110610c2257634e487b7160e01b600052603260045260246000fd5b60200260200101906001600160a01b031690816001600160a01b0316815250508060000151898481518110610c6757634e487b7160e01b600052603260045260246000fd5b60200260200101819052508060200151888481518110610c9757634e487b7160e01b600052603260045260246000fd5b60200260200101819052508060400151878481518110610cc757634e487b7160e01b600052603260045260246000fd5b60200260200101819052508060600151868481518110610cf757634e487b7160e01b600052603260045260246000fd5b60200260200101819052508060800151858481518110610d2757634e487b7160e01b600052603260045260246000fd5b60200260200101819052508060a00151848481518110610d5757634e487b7160e01b600052603260045260246000fd5b60200260200101906001600160a01b031690816001600160a01b03168152505050508080610d84906112d8565b9150506108b1565b50959e949d50929b5090995097509550909350915050565b828054610db09061129d565b90600052602060002090601f016020900481019282610dd25760008555610e18565b82601f10610deb57805160ff1916838001178555610e18565b82800160010185558215610e18579182015b82811115610e18578251825591602001919060010190610dfd565b50610e24929150610e28565b5090565b5b80821115610e245760008155600101610e29565b80356001600160a01b038116811461060f57600080fd5b600082601f830112610e64578081fd5b813567ffffffffffffffff80821115610e7f57610e7f6112ff565b604051601f8301601f191681016020018281118282101715610ea357610ea36112ff565b604052828152848301602001861015610eba578384fd5b82602086016020830137918201602001929092529392505050565b600060208284031215610ee6578081fd5b610eef82610e3d565b9392505050565b60008060008060008060c08789031215610f0e578182fd5b863567ffffffffffffffff80821115610f25578384fd5b610f318a838b01610e54565b97506020890135915080821115610f46578384fd5b610f528a838b01610e54565b96506040890135915080821115610f67578384fd5b610f738a838b01610e54565b95506060890135915080821115610f88578384fd5b610f948a838b01610e54565b94506080890135915080821115610fa9578384fd5b50610fb689828a01610e54565b925050610fc560a08801610e3d565b90509295509295509295565b6000815180845260208085019450808401835b838110156110095781516001600160a01b031687529582019590820190600101610fe4565b509495945050505050565b6000815180845260208085018081965082840281019150828601855b8581101561105a578284038952611048848351611067565b98850198935090840190600101611030565b5091979650505050505050565b60008151808452815b8181101561108c57602081850181015186830182015201611070565b8181111561109d5782602083870101525b50601f01601f19169290920160200192915050565b600060e082526110c560e083018a610fd1565b82810360208401526110d7818a611014565b905082810360408401526110eb8189611014565b905082810360608401526110ff8188611014565b905082810360808401526111138187611014565b905082810360a08401526111278186611014565b905082810360c084015261113b8185610fd1565b9a9950505050505050505050565b901515815260200190565b600060a0825261116760a0830188611067565b82810360208401526111798188611067565b9050828103604084015261118d8187611067565b905082810360608401526111a18186611067565b91505060018060a01b03831660808301529695505050505050565b600060c082526111cf60c0830189611067565b82810360208401526111e18189611067565b905082810360408401526111f58188611067565b905082810360608401526112098187611067565b9050828103608084015261121d8186611067565b91505060018060a01b03831660a0830152979650505050505050565b602080825260139082015272155cd95c881b9bdd081c9959da5cdd195c9959606a1b604082015260600190565b60208082526017908201527f5573657220616c72656164792072656769737465726564000000000000000000604082015260600190565b6002810460018216806112b157607f821691505b602082108114156112d257634e487b7160e01b600052602260045260246000fd5b50919050565b60006000198214156112f857634e487b7160e01b81526011600452602481fd5b5060010190565b634e487b7160e01b600052604160045260246000fdfea2646970667358221220eb0d96c4cc0af85ef122e42dfecf0077f5d59cf4d757514f3c3c530c6c5b533864736f6c63430008000033",
  "immutableReferences": {},
  "source": "// SPDX-License-Identifier: MIT\r\npragma solidity ^0.8.0;\r\n\r\ncontract UserCredentials {\r\n    struct User {\r\n        string username;\r\n        string passwordHash;\r\n        string firstname;\r\n        string lastname;\r\n        string email;\r\n        address referral;\r\n    }\r\n\r\n    mapping(address => User) private users;\r\n    address[] private userAddresses;\r\n\r\n    event UserRegistered(\r\n        address indexed userAddress,\r\n        string username,\r\n        string firstname,\r\n        string lastname,\r\n        string email,\r\n        address referral\r\n    );\r\n\r\n    function isRegistered(address _address) public view returns (bool) {\r\n        return bytes(users[_address].username).length > 0;\r\n    }\r\n\r\n    function register(\r\n        string memory _username,\r\n        string memory _passwordHash,\r\n        string memory _firstname,\r\n        string memory _lastname,\r\n        string memory _email,\r\n        address _referral\r\n    ) public {\r\n        require(!isRegistered(msg.sender), \"User already registered\");\r\n\r\n        User memory newUser = User({\r\n            username: _username,\r\n            passwordHash: _passwordHash,\r\n            firstname: _firstname,\r\n            lastname: _lastname,\r\n            email: _email,\r\n            referral: _referral\r\n        });\r\n\r\n        users[msg.sender] = newUser;\r\n        userAddresses.push(msg.sender);\r\n\r\n        emit UserRegistered(msg.sender, _username, _firstname, _lastname, _email, _referral);\r\n    }\r\n\r\n    function getUser(address _userAddress) public view returns (\r\n        string memory,\r\n        string memory,\r\n        string memory,\r\n        string memory,\r\n        string memory,\r\n        address\r\n    ) {\r\n        require(isRegistered(_userAddress), \"User not registered\");\r\n\r\n        User memory user = users[_userAddress];\r\n        return (\r\n            user.username,\r\n            user.passwordHash,\r\n            user.firstname,\r\n            user.lastname,\r\n            user.email,\r\n            user.referral\r\n        );\r\n    }\r\n\r\n    function getAllUsers() public view returns (\r\n        address[] memory,\r\n        string[] memory,\r\n        string[] memory,\r\n        string[] memory,\r\n        string[] memory,\r\n        string[] memory,\r\n        address[] memory\r\n    ) {\r\n        uint256 userCount = userAddresses.length;\r\n\r\n        address[] memory userAddressesCopy = new address[](userCount);\r\n        string[] memory usernames = new string[](userCount);\r\n        string[] memory passwordHashes = new string[](userCount);\r\n        string[] memory firstnames = new string[](userCount);\r\n        string[] memory lastnames = new string[](userCount);\r\n        string[] memory emails = new string[](userCount);\r\n        address[] memory referrals = new address[](userCount);\r\n\r\n        for (uint256 i = 0; i < userCount; i++) {\r\n            address userAddress = userAddresses[i];\r\n            User memory user = users[userAddress];\r\n\r\n            userAddressesCopy[i] = userAddress;\r\n            usernames[i] = user.username;\r\n            passwordHashes[i] = user.passwordHash;\r\n            firstnames[i] = user.firstname;\r\n            lastnames[i] = user.lastname;\r\n            emails[i] = user.email;\r\n            referrals[i] = user.referral;\r\n        }\r\n\r\n        return (userAddressesCopy, usernames, passwordHashes, firstnames, lastnames, emails, referrals);\r\n    }\r\n}\r\n",
  "sourcePath": "E:\\Websites\\Web3\\New folder\\UserInforSmartContract\\contracts\\UserCredentials.sol",
  "compiler": {
    "name": "solc",
    "version": "0.8.0+commit.c7dfd78e.Emscripten.clang"
  },
  "schemaVersion": "3.4.16",
  "updatedAt": "2024-07-27T12:11:19.131Z",
  "devdoc": {
    "kind": "dev",
    "methods": {},
    "version": 1
  },
  "userdoc": {
    "kind": "user",
    "methods": {},
    "version": 1
  }
}